:020000040800F2
:10000000E8060020390200080F1300080511000857
:100010000D1300082F04000841150008000000001F
:10002000000000000000000000000000991400081B
:100030003104000800000000111300089B140008A0
:10004000530200085302000853020008530200083C
:10005000530200085302000853020008530200082C
:10006000530200085302000853020008530200081C
:10007000530200085302000853020008530200080C
:100080005302000853020008530200080000000059
:100090000000000000000000000000005302000803
:1000A00053020008530200085302000853020008DC
:1000B00053020008530200085302000853020008CC
:1000C00053020008530200085302000853020008BC
:1000D0005302000853020008530200080000000009
:1000E00053020008530200085302000800000000F9
:1000F00000000000000000000000000053020008A3
:1001000000000000530200085302000853020008D8
:1001100000000000000000000000000000000000DF
:10012000530200085302000853020008530200085B
:100130005302000800000000000000000000000062
:100140000000000000000000000000005302000852
:10015000530200085302000853020008530200082B
:1001600053020008530200080000000000000000D5
:10017000000000000000000000000000000000007F
:100180000000000053020008000000000000000012
:10019000530200085302000800F002F800F03CF897
:1001A0000AA090E8000C82448344AAF10107DA45D2
:1001B00001D100F031F8AFF2090EBAE80F0013F0E8
:1001C000010F18BFFB1A43F001031847E8130000A2
:1001D00008140000103A24BF78C878C1FAD8520732
:1001E00024BF30C830C144BF04680C6070470000B1
:1001F0000023002400250026103A28BF78C1FBD830
:10020000520728BF30C148BF0B6070471FB501F0CF
:10021000C3F91FBD10B510BD00F0CFF81146FFF7B0
:10022000F5FF01F09FF900F0EDF803B4FFF7F2FFDE
:1002300003BC00F0F5F80000094880470948004772
:10024000FEE7FEE7FEE7FEE7FEE7FEE7FEE7FEE786
:10025000FEE7FEE704480549054A064B70470000E3
:100260003115000899010008E8000020E806002088
:10027000E8020020E802002053EA020C00F0698046
:100280002DE9F04B4FF00006002B1FBFB3FA83F5AA
:1002900003FA05F424FA05F65E4012BF1643B2FADB
:1002A00082F502FA05F4C5F120051EBF22FA05FC0D
:1002B00044EA0C04203556EA044C4FEA144418BFB3
:1002C000641C4FF000084FF00009904271EB030CE2
:1002D00039D3002919BFB1FA81F701FA07F6B0FA4C
:1002E00080F700FA07F6C7F120071EBF20FA07FCC7
:1002F00046EA0C062037B6FBF4FCA7EB0507103FD7
:1003000007F01F0BCBF120060CFA0BFB2CFA06F6BC
:1003100044BFB3460026202FA4BF5E464FF0000B1B
:100320005BEA060C08BF4FF0010B19EB0B09ABFBA6
:10033000027C48EB0608C01B06FB02CC0BFB03CC7F
:1003400071EB0C01C1E70B46024641464846BDE849
:10035000F08B13B54FF000004FF00001AFF30080B9
:10036000BDE81C4070474FF0000200B513469446AC
:100370009646203922BFA0E80C50A0E80C50B1F1FD
:100380002001BFF4F7AF090728BFA0E80C5048BF11
:100390000CC05DF804EB890028BF40F8042B08BFAF
:1003A000704748BF20F8022B11F0804F18BF00F8AB
:1003B000012B7047704770477047754600F02CF866
:1003C000AE4605006946534620F00700854618B042
:1003D00020B5FFF73FFFBDE820404FF000064FF08B
:1003E00000074FF000084FF0000B21F00701AC466A
:1003F000ACE8C009ACE8C009ACE8C009ACE8C00989
:100400008D46704710B50446AFF300802046BDE826
:100410001040FFF70ABF000000487047840000202A
:1004200001491820ABBEFEE7260002007047FEE738
:10043000704772B6FEE7000070B5044600F004F99C
:100440000546601C02D004480078044400F0FCF823
:10045000401BA042FAD370BD100000202DE9F84FD8
:10046000DFF8B8A10022012403254FF00F090AF19B
:10047000040BAAF1040E00BF0B6804FA02F6334025
:10048000B34273D10F7907F00307012F01D0022F78
:1004900016D187684FEA420805FA08FC27EA0C07DC
:1004A000D1F80CC00CFA08FC4CEA070CC0F808C0E4
:1004B0004768B7430E79C6F3001696403E43466040
:1004C0000E79F643B6070DD0C768560005FA06FC4C
:1004D00027EA0C07D1F808C00CFA06FC4CEA070C16
:1004E000C0F80CC00E7906F00306022E10D1D60813
:1004F00000EB8608D8F8206057074FEAD76C09FA56
:100500000CF7BE430F6907FA0CF73743C8F82070A1
:1005100006684FEA420C05FA0CF7BE430F7907F064
:10052000030707FA0CF7374307604E6816F4403F9D
:100530006DD03B4E376847F480473760366822F00D
:10054000030706F480460096364E07EB060CDCF8EF
:10055000086897073F0F09FA07F826EA0806DFF848
:10056000C880404503D14FF000081EE04FE0DFF89F
:10057000BC80404502D14FF0010816E0DFF8B080A2
:10058000404502D14FF002080FE0DFF8A880404557
:1005900002D14FF0030808E0DFF89C80404502D10B
:1005A0004FF0040801E04FF0070808FA07F848EA9E
:1005B0000608CCF80888DAF800605746D1F804C07D
:1005C0009E435FEACC2C00D51E433E60DBF8006002
:1005D0005F46D1F804C09E435FEA8C2C00D51E43D1
:1005E0003E60DEF800607746D1F804C09E435FEAC3
:1005F0008C3C00D51E433E60084F083F3E68D1F852
:1006000004C09E435FEACC3C00D51E433E60521CB2
:10061000102AFFF431AFBDE8F88F0000083C01401C
:100620004438024000300140000002400004024013
:1006300000080240000C0240001002400AB1816133
:1006400070470904FBE7000001488068704700001C
:1006500010000020024881680278114481607047D0
:10066000100000200B4810B5016841F400710160D2
:10067000016841F480610160016841F480710160AA
:10068000032000F061F80F2000F006F800F024F8D5
:10069000002010BD003C024070B50D4D04464FF4E3
:1006A0007A712878B1FBF0F00A490968B1FBF0F0E3
:1006B00000F014FD48B9102C07D200222146501E2C
:1006C00000F022F800206C6070BD012070BD0000B9
:1006D000100000201C0000200A4808B5016841F401
:1006E00080410160006800F4804000900548001FD0
:1006F000016841F080510160006800F08050009076
:1007000008BD000044380240F0B40E4B1B680C4694
:10071000C3F30223C3F10705042D00D90425191DD5
:10072000072901D2002300E0DB1E012606FA05F1AD
:10073000491E214099409E40761E16403143F0BC30
:1007400000F0FFBE0CED00E0064900F0070208686B
:100750004FF6FF03184040EA0220034A10430860A6
:10076000704700000CED00E00000FA052DE9F047AD
:100770000E46050065D0DFF81481D8F80000F7B206
:1007800000F00700B04207D288F80070D8F80000E7
:1007900000F00700B04254D128683D4C810712D5C3
:1007A000400703D5206840F4E05020602878000717
:1007B00003D5206840F4604020602068A96820F0DC
:1007C000F000084320602878C0072DD030496868C1
:1007D0000839012812D0022813D0032811D0096843
:1007E000890700292DDA216821F0030101432160E6
:1007F000FFF72AFF814641F2883A0EE00968890333
:10080000EFE709688901ECE7FFF71EFFA0EB09019C
:10081000514502D90320BDE8F0872068696800F0DF
:100820000C00B0EB810FEFD1D8F80010404601F07A
:100830000701B14207D90770006800F00700B04215
:1008400001D00120E7E72878400705D52068E9684E
:1008500020F4E050084320602878000706D520687F
:10086000296920F4604040EAC100206000F018F8D7
:100870002168084AC1F30311515CC8400649086069
:1008800006480068FFF708FF0020C4E7003C02406C
:1008900008380240A21500081C00002014000020A7
:1008A000154810B5006810F00C02144813D0144914
:1008B000042A0FD0082A0ED10F4C241F2268236867
:1008C00002F03F025B0207D52068C0F38810A0FB4E
:1008D000010106E0084610BD2168C1F38811A1FBA3
:1008E00000010023FFF7C8FC2168C1F30141491C46
:1008F0004900B0FBF1F010BD083802400024F400BC
:1009000040787D012DE9F84F04006ED02078DFF8A3
:100910004C93C007A9F104054AD009F1040001680D
:10092000C1F38101012908D00068C0F381000228C9
:100930000AD1D9F80000400206D52868800337D5CF
:1009400060680028E1D033E06068B0F5803F10D0E7
:10095000B0F5A02F286810D020F4803028602868D7
:1009600020F4802028606068A8B1FFF76DFE06467D
:100970000DE0286840F48030F4E740F480202860DF
:10098000F7E700BFFFF760FE801B642873D8286874
:100990008003F7D50CE0FFF757FE064605E000BFE1
:1009A000FFF752FE801B6428F0D828688003F7D434
:1009B0002078DFF8AC8280074FF0000A3ED5A748C8
:1009C000001D016811F00C0F08D00068C0F3810011
:1009D00002280BD1D9F80000400207D4286880070C
:1009E00016D5E068012800D112E033E1E068B8B123
:1009F0000120C8F80000FFF727FE064605E000BF0B
:100A0000FFF722FE801B0228C0D828688007F7D590
:100A10002868216920F0F80040EAC10028600DE054
:100A2000C8F800A0FFF710FE064604E0FFF70CFE32
:100A3000801B02281FD828688007F7D42078000779
:100A400022D5864F87486169703771B101210160F5
:100A5000FFF7FAFD064604E0FFF7F6FD801B0228CB
:100A600009D838688007F7D50EE0C0F800A0FFF776
:100A7000EBFD064605E082E0FFF7E6FD801B02285D
:100A80007DD838688007F7D42078400768D5DFF82C
:100A9000CCB100270BF13C0BDBF80000C0000BD4FD
:100AA000DBF8001041F08051CBF80010DBF80000BB
:100AB000012700F0805000906B4E3068C00510D4C4
:100AC000306840F480703060FFF7BEFD009005E0B4
:100AD000FFF7BAFD0099401A022850D83068C005C7
:100AE000F6D55E4EA0686C3601280FD00528306818
:100AF00010D020F001003060306820F00400306039
:100B0000A068B8B1FFF7A0FD00900FE0306840F09A
:100B10000100F4E740F004003060F7E7FFF794FDD0
:100B20000099411A41F28830814266D830688007C6
:100B3000F4D50EE0FFF788FD009007E0FFF784FD95
:100B40000099411A41F28830814256D830688007B6
:100B5000F4D42FB1DBF8001021F08051CBF8001055
:100B6000A069C8B33D49091D0968C1F38101022983
:100B70004AD00228504607D0C8F8600000E03CE0A8
:100B8000FFF762FD04463BE04746C8F86000FFF708
:100B90005BFD064605E000BFFFF756FD801B0228FF
:100BA0002BD828688001F7D4D4E907010843A16A4B
:100BB0002E4A490802EB0141626A41EA8211084368
:100BC00094F82C1040EA0161C9F800100120386641
:100BD000FFF73AFD044606E03EE000BFFFF734FDB4
:100BE000001B022809D828688001F7D534E000BF2F
:100BF000FFF72AFD001B022802D90320BDE8F88F69
:100C000028688001F4D427E00128F7D0D9F8000043
:100C1000E26900F4800191421CD1226A00F03F0198
:100C2000914217D147F6C071626A0140B1EB821F51
:100C300010D1A26A4FF0FF3300F4403103EB5202AF
:100C4000B1EB024F06D194F82C1000F07060B0EBBD
:100C5000016F01D00120D1E70020CFE70438024026
:100C600000004742800E4742007000400000FFFF36
:100C700070B5040009D0606A002540B12561656146
:100C8000A56294F8510040B10CE0012070BD60688D
:100C9000B0F5827FF4D0E561F2E784F85050204649
:100CA00000F044F8022084F851002068016821F027
:100CB00040010160A088218900F4827001F40441A0
:100CC0000843A18901F400610843217C01F002017D
:100CD0000843217D01F001010843218B01F40071DB
:100CE0000843217F01F03801084394F8201001F0F7
:100CF00080010843218D01F40051084321680860F8
:100D0000A069042101EA104094F8241001F01001B8
:100D10000843216848602068C16921F40061C1610D
:100D20006565012084F85100002070BD10B586B0C3
:100D3000044614216846FFF716FB134920688842D1
:100D400020D112480021026842F4805202600068FB
:100D500000F4805005900D481438026842F00102FA
:100D60000260006800F001000590E0200090022081
:100D7000CDE9010103200390052004906946044851
:100D8000FFF76CFB06B010BD003001404438024054
:100D9000000002402DE9F84F044690F8500000276B
:100DA0001D461646894601280DD04FF0010B84F8E8
:100DB00050B0FFF749FC804694F85100BA4601282C
:100DC00004D0022793E00220BDE8F88FB9F1000FAC
:100DD00073D0002E71D0032084F85100C4F854A0C1
:100DE000C4F83090A686E686C4F838A0A4F83CA0E3
:100DF000A4F83EA0C4F844A0C4F840A0A068B0F590
:100E0000004F09D12068016821F04001016020688D
:100E1000016841F48041016020680168490603D4FB
:100E2000016841F040010160E068B0F5006F606862
:100E300003D030B3012E24D041E008B1012E1CD1E3
:100E4000206B21680088C86006E0206881688907F7
:100E500009D5216B0988C160206B801C2063E08E5E
:100E6000401EE08609E0FFF7EFFBA0EB0800A84278
:100E700002D3681C01D031E07DB3E08E0028E4D1BC
:100E800020E0206B21680078087306E02068816804
:100E9000890709D5216B09780173206B401C2063F9
:100EA000E08E401EE0860AE0FFF7CEFBA0EB0800D4
:100EB000A84203D3681C02D010E017E06DB1E08EA9
:100EC0000028E3D142462946204600F023FA08B123
:100ED00020206065A06818B106E0FFE7032706E060
:100EE0002068C16880680090606D00B1012784F8B7
:100EF00051B084F850A0384666E72DE9F84F044613
:100F000090F8500000270A9E1D4692468B464FF0EF
:100F1000010901280ED0012084F85000FFF794FB4E
:100F2000804694F85100616801280CD0B1F5827FA9
:100F300007D102E00220BDE8F88FA16809B90428B2
:100F400001D00227C2E0BBF1000F27D0BAF1000F99
:100F500024D01DB394F85100042802D0052084F851
:100F6000510000206065C4F838A0E587A587C4F863
:100F700030B0E586A5862064606420680168490673
:100F800003D4016841F040010160E068B0F5006FF2
:100F9000606805D0E8B3012D46D07FE0012795E0D9
:100FA00008B1012D39D1206B21680088C860206B01
:100FB000801C2063E08E401EE0862EE02068816861
:100FC00089070FD5E18E69B1B9F1010F0AD1216B03
:100FD0000988C160206B801C2063E08E401EE08683
:100FE0004FF0000920688168C9070CD0E18F51B12A
:100FF000C068A16B0880A06B801CA063E08F401EBE
:10100000E0874FF00109FFF71FFBA0EB0800B0429B
:1010100000E009E001D3701C50D1E08E0028CDD152
:10102000E08F0028CAD13FE0206B21680078087368
:10103000206B401C2063E08E401EE0862EE020687E
:10104000816889070FD5E18E69B1B9F1010F0AD125
:10105000216B09780173206B401C2063E08E401ED9
:10106000E0864FF0000920688168C9070CD0E18F45
:1010700051B1C068A16B0870A06B401CA063E08FE9
:10108000401EE0874FF00109FFF7DEFAA0EB0800F1
:10109000B04202D3701C01D010E07EB1E08E002877
:1010A000CDD1E08F0028CAD142463146204600F01B
:1010B00031F928B101272020606507E0032705E00A
:1010C000A06818B92068C16880680090012084F881
:1010D0005100002084F8500038462CE710B5401E1F
:1010E000B0F1807F01D3012010BD4FF0E02460619A
:1010F0000F21601700F025FA0020A0610720206171
:10110000002010BDFEE70000B0F9002000EE102A1C
:10111000F8EEC00A9FED0D0A60EE800AC1ED000AEC
:10112000B0F9022000EE902AF8EEE00A60EE800AA4
:10113000C1ED010AB0F9040000EE900AF8EEE00AF1
:1011400020EE800A81ED020A70470000295C8F3D85
:1011500070B5144C2025FF202570607002212046B8
:1011600000F004F92120207000266670022120463C
:1011700000F0FCF82220207066700221204600F06A
:10118000F5F82320207065700221204600F0EEF86B
:1011900024202070102060702046BDE8704002219D
:1011A00000F0E4B8000000202DE9F0411A4D064699
:1011B000A820AC1C28700122611CA01E00F0F2F8CF
:1011C000A9272F700122A11CA01E00F0EBF8AA2075
:1011D00028700122E11CA01E00F0E4F82F7001220B
:1011E000211DA01E00F0DEF8AC2028700122611D38
:1011F000A01E00F0D7F8AD2028700122A11DA01E6E
:1012000000F0D0F834F8010F308060887080A0883A
:10121000B080BDE8F0810000000000202DE9F04121
:1012200086B014216846FFF79EF823480024016821
:1012300041F010010160016801F0100105910168A1
:1012400041F080010160016801F0800105910168B1
:1012500041F001010160016801F00101059101689F
:1012600041F0080101600068144F00F0080005908B
:10127000012208213846FFF7E1F9DFF844804FF4F6
:101280007046002231464046FFF7D8F9082000900A
:101290000125CDE90154694638460394FFF7DEF88D
:1012A0000096CDE90154694640460394FFF7D6F80D
:1012B00006B0BDE8F0810000303802400010024066
:1012C000000C0240104810B50E4901604FF48271C5
:1012D000416000218160C1604FF400720161C0E98A
:1012E00005121822C0E90721416281620A21C16208
:1012F000FFF7BEFC002803D0BDE81040FFF799B807
:1013000010BD0000003001402C000020FEE7FEE789
:101310007047000038B504461248134B0068B0FB14
:10132000F3F04FF47A73584300906068B0F5827F11
:101330000DD10B46009200228021204600F050F88B
:1013400070B1606D40F020006065032038BD0098EA
:1013500030B1401E009020688068C0430006F6D57A
:10136000002038BD1C00002000366E0170B50B4E09
:101370000D460446002208213046FFF75FF9AAB265
:101380004FF0FF3321460648FFF704FD3046BDE825
:10139000704001220821FFF751B9000000100240FF
:1013A0002C000020F8B50C4F14460D4606460022CE
:1013B00008213846FFF742F94FF0FF300090A3B202
:1013C0002A4631460548FFF798FD3846BDE8F84003
:1013D00001220821FFF732B9001002402C00002042
:1013E0002DE9F8431E46914688460446089DFFF7BE
:1013F0002BF9401B351AFFF727F9074625480068E7
:10140000C0F3CB30684338E0701C37D0FFF71CF9CD
:10141000C01BA84203D215B1009860B32CE020682D
:10142000416821F0E00141606068B0F5827F0BD136
:10143000A068B0F5004F02D0B0F5806F04D12068ED
:10144000016821F040010160A06AB0F5005F09D198
:101450002068016821F4005101602068016841F4AE
:1014600000510160012084F85100002084F85000F0
:101470000320BDE8F8830025401E009020688168A5
:1014800038EA010004D000214945BDD10020F0E731
:101490000121F9E71C0000207047FFF7DBB80000CE
:1014A00030B593B030216846FEF75DFF14210CA8DB
:1014B000FEF759FF1C480024016841F0805101608B
:1014C000006800F0805011901848016841F44041D4
:1014D00001600068022500F4404011900120039053
:1014E00010200490009506950820CDE9074064205F
:1014F000CDE9090504200B906846FFF703FA08B10F
:1015000072B6FEE70F20CDE90C054FF48050CDE90F
:101510000E4003210CA81094FFF728F9002801D0F1
:1015200072B6FEE713B030BD403802400070004094
:101530000248016841F470010160704788ED00E0E5
:10154000FEE70907090E002804DB00F1E02080F81F
:101550000014704700F00F0000F1E02080F8141D27
:1015600070470000FFF77EF8FFF79AFFFFF756FE7F
:10157000FFF7A8FEFFF7ECFD0548FFF715FE05494C
:101580000348FFF7C1FD0A20FEF756FFF4E700000D
:101590000A000020200000204FF04070E1EE100A09
:1015A000704700000000000000000102030406076D
:1015B00008090000D41500080000002020000000E9
:1015C000D4010008F415000820000020C80600001F
:1015D000F001000800000000000000000000000012
:1015E00000000000010000001000000000000000EA
:0415F0000024F400DF
:040000050800019955
:00000001FF
