:020000040800F2
:100000000836002039020008AB1800085F1200080B
:10001000A91800082F040008C51A000800000000F5
:100020000000000000000000000000001D1A000891
:100030003104000800000000AD1800081F1A000875
:10004000530200085302000853020008530200083C
:10005000530200085302000853020008530200082C
:10006000530200085302000853020008530200081C
:10007000530200085302000853020008530200080C
:100080005302000853020008530200080000000059
:100090000000000000000000000000005302000803
:1000A00053020008530200085302000853020008DC
:1000B00053020008530200085302000853020008CC
:1000C00053020008530200085302000853020008BC
:1000D0005302000853020008530200080000000009
:1000E00053020008530200085302000800000000F9
:1000F00000000000000000000000000053020008A3
:1001000000000000530200085302000853020008D8
:1001100000000000000000000000000000000000DF
:10012000530200085302000853020008530200085B
:100130005302000800000000000000000000000062
:100140000000000000000000000000005302000852
:10015000530200085302000853020008530200082B
:1001600053020008530200080000000000000000D5
:10017000000000000000000000000000000000007F
:100180000000000053020008000000000000000012
:10019000530200085302000800F002F800F03CF897
:1001A0000AA090E8000C82448344AAF10107DA45D2
:1001B00001D100F031F8AFF2090EBAE80F0013F0E8
:1001C000010F18BFFB1A43F0010318475419000030
:1001D00074190000103A24BF78C878C1FAD85207C1
:1001E00024BF30C830C144BF04680C6070470000B1
:1001F0000023002400250026103A28BF78C1FBD830
:10020000520728BF30C148BF0B6070471FB501F0CF
:100210007AFC1FBD10B510BD00F0CFF81146FFF7F6
:10022000F5FF01F060FC00F0EDF803B4FFF7F2FF1A
:1002300003BC00F0F5F80000094880470948004772
:10024000FEE7FEE7FEE7FEE7FEE7FEE7FEE7FEE786
:10025000FEE7FEE704480549054A064B70470000E3
:10026000B51A00089901000808300020083600205F
:10027000083200200832002053EA020C00F06980A6
:100280002DE9F04B4FF00006002B1FBFB3FA83F5AA
:1002900003FA05F424FA05F65E4012BF1643B2FADB
:1002A00082F502FA05F4C5F120051EBF22FA05FC0D
:1002B00044EA0C04203556EA044C4FEA144418BFB3
:1002C000641C4FF000084FF00009904271EB030CE2
:1002D00039D3002919BFB1FA81F701FA07F6B0FA4C
:1002E00080F700FA07F6C7F120071EBF20FA07FCC7
:1002F00046EA0C062037B6FBF4FCA7EB0507103FD7
:1003000007F01F0BCBF120060CFA0BFB2CFA06F6BC
:1003100044BFB3460026202FA4BF5E464FF0000B1B
:100320005BEA060C08BF4FF0010B19EB0B09ABFBA6
:10033000027C48EB0608C01B06FB02CC0BFB03CC7F
:1003400071EB0C01C1E70B46024641464846BDE849
:10035000F08B13B54FF000004FF00001AFF30080B9
:10036000BDE81C4070474FF0000200B513469446AC
:100370009646203922BFA0E80C50A0E80C50B1F1FD
:100380002001BFF4F7AF090728BFA0E80C5048BF11
:100390000CC05DF804EB890028BF40F8042B08BFAF
:1003A000704748BF20F8022B11F0804F18BF00F8AB
:1003B000012B7047704770477047754600F02CF866
:1003C000AE4605006946534620F00700854618B042
:1003D00020B5FFF73FFFBDE820404FF000064FF08B
:1003E00000074FF000084FF0000B21F00701AC466A
:1003F000ACE8C009ACE8C009ACE8C009ACE8C00989
:100400008D46704710B50446AFF300802046BDE826
:100410001040FFF70ABF000000487047A42F0020DB
:1004200001491820ABBEFEE7260002007047FEE738
:10043000704772B6FEE7000070B5044600F004F99C
:100440000546601C02D004480078044400F0FCF823
:10045000401BA042FAD370BD5C0000202DE9F84F8C
:10046000DFF8B8A10022012403254FF00F090AF19B
:10047000040BAAF1040E00BF0B6804FA02F6334025
:10048000B34273D10F7907F00307012F01D0022F78
:1004900016D187684FEA420805FA08FC27EA0C07DC
:1004A000D1F80CC00CFA08FC4CEA070CC0F808C0E4
:1004B0004768B7430E79C6F3001696403E43466040
:1004C0000E79F643B6070DD0C768560005FA06FC4C
:1004D00027EA0C07D1F808C00CFA06FC4CEA070C16
:1004E000C0F80CC00E7906F00306022E10D1D60813
:1004F00000EB8608D8F8206057074FEAD76C09FA56
:100500000CF7BE430F6907FA0CF73743C8F82070A1
:1005100006684FEA420C05FA0CF7BE430F7907F064
:10052000030707FA0CF7374307604E6816F4403F9D
:100530006DD03B4E376847F480473760366822F00D
:10054000030706F480460096364E07EB060CDCF8EF
:10055000086897073F0F09FA07F826EA0806DFF848
:10056000C880404503D14FF000081EE04FE0DFF89F
:10057000BC80404502D14FF0010816E0DFF8B080A2
:10058000404502D14FF002080FE0DFF8A880404557
:1005900002D14FF0030808E0DFF89C80404502D10B
:1005A0004FF0040801E04FF0070808FA07F848EA9E
:1005B0000608CCF80888DAF800605746D1F804C07D
:1005C0009E435FEACC2C00D51E433E60DBF8006002
:1005D0005F46D1F804C09E435FEA8C2C00D51E43D1
:1005E0003E60DEF800607746D1F804C09E435FEAC3
:1005F0008C3C00D51E433E60084F083F3E68D1F852
:1006000004C09E435FEACC3C00D51E433E60521CB2
:10061000102AFFF431AFBDE8F88F0000083C01401C
:100620004438024000300140000002400004024013
:1006300000080240000C0240001002400AB1816133
:1006400070470904FBE7000001488068704700001C
:100650005C00002002488168027811448160704784
:100660005C0000200B4810B5016841F40071016086
:10067000016841F480610160016841F480710160AA
:10068000032000F061F80F2000F006F800F024F8D5
:10069000002010BD003C024070B50D4D04464FF4E3
:1006A0007A712878B1FBF0F00A490968B1FBF0F0E3
:1006B00000F0C1FD48B9102C07D200222146501E7F
:1006C00000F022F800206C6070BD012070BD0000B9
:1006D0005C000020680000200A4808B5016841F469
:1006E00080410160006800F4804000900548001FD0
:1006F000016841F080510160006800F08050009076
:1007000008BD000044380240F0B40E4B1B680C4694
:10071000C3F30223C3F10705042D00D90425191DD5
:10072000072901D2002300E0DB1E012606FA05F1AD
:10073000491E214099409E40761E16403143F0BC30
:1007400001F0C1B90CED00E0064900F007020868AD
:100750004FF6FF03184040EA0220034A10430860A6
:10076000704700000CED00E00000FA052DE9F047AD
:100770000E46050065D0DFF81481D8F80000F7B206
:1007800000F00700B04207D288F80070D8F80000E7
:1007900000F00700B04254D128683D4C810712D5C3
:1007A000400703D5206840F4E05020602878000717
:1007B00003D5206840F4604020602068A96820F0DC
:1007C000F000084320602878C0072DD030496868C1
:1007D0000839012812D0022813D0032811D0096843
:1007E000890700292DDA216821F0030101432160E6
:1007F000FFF72AFF814641F2883A0EE00968890333
:10080000EFE709688901ECE7FFF71EFFA0EB09019C
:10081000514502D90320BDE8F0872068696800F0DF
:100820000C00B0EB810FEFD1D8F80010404601F07A
:100830000701B14207D90770006800F00700B04215
:1008400001D00120E7E72878400705D52068E9684E
:1008500020F4E050084320602878000706D520687F
:10086000296920F4604040EAC100206000F018F8D7
:100870002168084AC1F30311515CC8400649086069
:1008800006480068FFF708FF0020C4E7003C02406C
:1008900008380240101B000868000020600000209B
:1008A000154810B5006810F00C02144813D0144914
:1008B000042A0FD0082A0ED10F4C241F2268236867
:1008C00002F03F025B0207D52068C0F38810A0FB4E
:1008D000010106E0084610BD2168C1F38811A1FBA3
:1008E00000010023FFF7C8FC2168C1F30141491C46
:1008F0004900B0FBF1F010BD083802400024F400BC
:1009000040787D012DE9F84F04006ED02078DFF8A3
:100910004C93C007A9F104054AD009F1040001680D
:10092000C1F38101012908D00068C0F381000228C9
:100930000AD1D9F80000400206D52868800337D5CF
:1009400060680028E1D033E06068B0F5803F10D0E7
:10095000B0F5A02F286810D020F4803028602868D7
:1009600020F4802028606068A8B1FFF76DFE06467D
:100970000DE0286840F48030F4E740F480202860DF
:10098000F7E700BFFFF760FE801B642873D8286874
:100990008003F7D50CE0FFF757FE064605E000BFE1
:1009A000FFF752FE801B6428F0D828688003F7D434
:1009B0002078DFF8AC8280074FF0000A3ED5A748C8
:1009C000001D016811F00C0F08D00068C0F3810011
:1009D00002280BD1D9F80000400207D4286880070C
:1009E00016D5E068012800D112E033E1E068B8B123
:1009F0000120C8F80000FFF727FE064605E000BF0B
:100A0000FFF722FE801B0228C0D828688007F7D590
:100A10002868216920F0F80040EAC10028600DE054
:100A2000C8F800A0FFF710FE064604E0FFF70CFE32
:100A3000801B02281FD828688007F7D42078000779
:100A400022D5864F87486169703771B101210160F5
:100A5000FFF7FAFD064604E0FFF7F6FD801B0228CB
:100A600009D838688007F7D50EE0C0F800A0FFF776
:100A7000EBFD064605E082E0FFF7E6FD801B02285D
:100A80007DD838688007F7D42078400768D5DFF82C
:100A9000CCB100270BF13C0BDBF80000C0000BD4FD
:100AA000DBF8001041F08051CBF80010DBF80000BB
:100AB000012700F0805000906B4E3068C00510D4C4
:100AC000306840F480703060FFF7BEFD009005E0B4
:100AD000FFF7BAFD0099401A022850D83068C005C7
:100AE000F6D55E4EA0686C3601280FD00528306818
:100AF00010D020F001003060306820F00400306039
:100B0000A068B8B1FFF7A0FD00900FE0306840F09A
:100B10000100F4E740F004003060F7E7FFF794FDD0
:100B20000099411A41F28830814266D830688007C6
:100B3000F4D50EE0FFF788FD009007E0FFF784FD95
:100B40000099411A41F28830814256D830688007B6
:100B5000F4D42FB1DBF8001021F08051CBF8001055
:100B6000A069C8B33D49091D0968C1F38101022983
:100B70004AD00228504607D0C8F8600000E03CE0A8
:100B8000FFF762FD04463BE04746C8F86000FFF708
:100B90005BFD064605E000BFFFF756FD801B0228FF
:100BA0002BD828688001F7D4D4E907010843A16A4B
:100BB0002E4A490802EB0141626A41EA8211084368
:100BC00094F82C1040EA0161C9F800100120386641
:100BD000FFF73AFD044606E03EE000BFFFF734FDB4
:100BE000001B022809D828688001F7D534E000BF2F
:100BF000FFF72AFD001B022802D90320BDE8F88F69
:100C000028688001F4D427E00128F7D0D9F8000043
:100C1000E26900F4800191421CD1226A00F03F0198
:100C2000914217D147F6C071626A0140B1EB821F51
:100C300010D1A26A4FF0FF3300F4403103EB5202AF
:100C4000B1EB024F06D194F82C1000F07060B0EBBD
:100C5000016F01D00120D1E70020CFE70438024026
:100C600000004742800E4742007000400000FFFF36
:100C700070B5040009D0606A002540B12561656146
:100C8000A56294F8510040B10CE0012070BD60688D
:100C9000B0F5827FF4D0E561F2E784F85050204649
:100CA00000F044F8022084F851002068016821F027
:100CB00040010160A088218900F4827001F40441A0
:100CC0000843A18901F400610843217C01F002017D
:100CD0000843217D01F001010843218B01F40071DB
:100CE0000843217F01F03801084394F8201001F0F7
:100CF00080010843218D01F40051084321680860F8
:100D0000A069042101EA104094F8241001F01001B8
:100D10000843216848602068C16921F40061C1610D
:100D20006565012084F85100002070BD10B586B0C3
:100D3000044614216846FFF716FB134920688842D1
:100D400020D112480021026842F4805202600068FB
:100D500000F4805005900D481438026842F00102FA
:100D60000260006800F001000590E0200090022081
:100D7000CDE9010103200390052004906946044851
:100D8000FFF76CFB06B010BD003001404438024054
:100D9000000002402DE9F84F0446406800259846BF
:100DA00016460F464FF0040BB0F5827F01D1A068C4
:100DB00088B194F85000012818D0012084F8500020
:100DC000FFF742FC814694F851004FF0000A0128D9
:100DD0000ED0022582E084F851B013460A46204620
:100DE000CDF8008000F036F9BDE8F88F0220FBE76F
:100DF000002F72D0002E70D084F851B0C4F854A0E7
:100E0000A763A687E687C4F830A0A4F834A0A4F8A6
:100E100036A0C4F840A0C4F844A0A068B0F5004FC4
:100E200009D12068016821F0400101602068016853
:100E300021F48041016020680168490603D40168FB
:100E400041F040010160E068D8B139E02068816874
:100E5000C90709D0007BA16B0870A06B401CA06380
:100E6000E08F401EE0870CE0FFF7EEFBA0EB0901EE
:100E7000414503D3B8F1FF3F03D036E0B8F1000F8E
:100E800033D0E08F0028E1D11DE020688168C907D8
:100E900009D0C068A16B0880A06B801CA063E08FA4
:100EA000401EE0870CE0FFF7CFFBA0EB09014145B6
:100EB00003D3B8F1FF3F03D017E0B8F1000F14D00F
:100EC000E08F0028E1D14A464146204600F0EFFC81
:100ED00008B120206065606D00B10125012084F813
:100EE000510084F850A028467EE70325F6E72DE957
:100EF000F84F044690F8500000271D4616468946D4
:100F000001280DD04FF0010B84F850B0FFF79CFB87
:100F1000804694F85100BA46012804D0022793E095
:100F20000220BDE8F88FB9F1000F73D0002E71D008
:100F3000032084F85100C4F854A0C4F83090A68669
:100F4000E686C4F838A0A4F83CA0A4F83EA0C4F8F3
:100F500044A0C4F840A0A068B0F5004F09D12068B3
:100F6000016821F0400101602068016841F480417E
:100F7000016020680168490603D4016841F040011E
:100F80000160E068B0F5006F606803D030B3012EF7
:100F900024D041E008B1012E1CD1206B21680088CB
:100FA000C86006E020688168890709D5216B098837
:100FB000C160206B801C2063E08E401EE08609E04B
:100FC000FFF742FBA0EB0800A84202D3681C01D047
:100FD00031E07DB3E08E0028E4D120E0206B216871
:100FE0000078087306E020688168890709D5216BBD
:100FF00009780173206B401C2063E08E401EE08660
:101000000AE0FFF721FBA0EB0800A84203D3681C0D
:1010100002D010E017E06DB1E08E0028E3D1424627
:101020002946204600F072FC08B120206065A068C7
:1010300018B106E0FFE7032706E02068C168806872
:101040000090606D00B1012784F851B084F850A081
:10105000384666E72DE9F84F044690F8500000271F
:101060000A9E1D4692468B464FF0010901280ED07C
:10107000012084F85000FFF7E7FA804694F8510009
:10108000616801280CD0B1F5827F07D102E002200F
:10109000BDE8F88FA16809B9042801D00227C2E091
:1010A000BBF1000F27D0BAF1000F24D01DB394F884
:1010B0005100042802D0052084F85100002060650A
:1010C000C4F838A0E587A587C4F830B0E586A586C2
:1010D0002064606420680168490603D4016841F017
:1010E00040010160E068B0F5006F606805D0E8B3CA
:1010F000012D46D07FE0012795E008B1012D39D1BF
:10110000206B21680088C860206B801C2063E08E03
:10111000401EE0862EE02068816889070FD5E18EA9
:1011200069B1B9F1010F0AD1216B0988C160206B47
:10113000801C2063E08E401EE0864FF0000920688E
:101140008168C9070CD0E18F51B1C068A16B0880DC
:10115000A06B801CA063E08F401EE0874FF0010968
:10116000FFF772FAA0EB0800B04200E009E001D3FB
:10117000701C50D1E08E0028CDD1E08F0028CAD15C
:101180003FE0206B216800780873206B401C2063CF
:10119000E08E401EE0862EE02068816889070FD52A
:1011A000E18E69B1B9F1010F0AD1216B09780173A0
:1011B000206B401C2063E08E401EE0864FF000094B
:1011C00020688168C9070CD0E18F51B1C068A16B5C
:1011D0000870A06B401CA063E08F401EE0874FF0BA
:1011E0000109FFF731FAA0EB0800B04202D3701CEE
:1011F00001D010E07EB1E08E0028CDD1E08F002834
:10120000CAD142463146204600F080FB28B1012772
:101210002020606507E0032705E0A06818B9206872
:10122000C16880680090012084F85100002084F893
:10123000500038462CE710B5401EB0F1807F01D336
:10124000012010BD4FF0E02460610F21601700F015
:101250003AFC0020A06107202061002010BDFEE7BD
:101260002DE9F041454F012208213846FFF7E6F904
:101270001420FFF7E1F8002208213846FFF7DEF9D5
:101280001420FFF7D9F83E4C2025FF202570607010
:101290003223022221463B48FFF729FE0122082182
:1012A0003846FFF7CBF91420FFF7C6F800220821D3
:1012B0003846FFF7C3F91420FFF7BEF8212020704D
:1012C000002666703223022221462E48FFF70FFEC9
:1012D000012208213846FFF7B1F91420FFF7ACF8D6
:1012E000002208213846FFF7A9F91420FFF7A4F8D7
:1012F0002220207066703223022221462148FFF707
:10130000F6FD012208213846FFF798F91420FFF76F
:1013100093F8002208213846FFF790F91420FFF7D0
:101320008BF8232020706570322302222146154855
:10133000FFF7DDFD012208213846FFF77FF9142071
:10134000FFF77AF8002208213846FFF777F91420D2
:10135000FFF772F8242020701020607032230222E0
:1013600021460848FFF7C3FD012208213846FFF750
:1013700065F9BDE8F0411420FFF75EB800100240A7
:10138000030000204C2F00202DE9F04F9BB00020DF
:10139000ADF81000ADF80C00ADF8080014210DA850
:1013A000FEF7E1FF142112A8FEF7DDFF142108A8C3
:1013B000FEF7D9FFFA4D00200646A97803460246FB
:1013C00005F1540419B301297ED134F8011FADF899
:1013D00010106188ADF80C10A188ADF808102946EE
:1013E0004978DFEDF00A2C460229D4E90575E46955
:1013F0006BD0DFF8B4C3EA4C0CF57A6505F57A6773
:101400004FF4FA6800297DD001297CD137E1287892
:10141000012859D1E54F002208213846FFF70EF97F
:10142000DF4EA820F61C3223307001223146E048FE
:10143000FFF75DFD32230122611CDD48FFF7AAFCA6
:10144000012208213846FFF7F9F800220821384622
:10145000FFF7F4F8A9203070322301223146D44836
:10146000FFF745FD32230122A11CD148FFF792FC72
:10147000012208213846FFF7E1F80022082138460A
:10148000FFF7DCF8AA203070322301223146C84829
:10149000FFF72DFD32230122E11CC548FFF77AFC3E
:1014A000012208213846FFF7C9F8002208213846F2
:1014B000FFF7C4F8AB203070322301223146BC481C
:1014C000FFF715FD322301E041E043E00122211D39
:1014D000B748FFF75FFC012208213846FFF7AEF856
:1014E000002208213846FFF7A9F8AC2030703223DB
:1014F00001223146AE48FFF7FAFC32230122611D7A
:10150000AB4801E0A1E09FE0FFF744FC0122082185
:101510003846FFF793F8002208213846FFF78EF887
:10152000AD203070322301223146A148FFF7DFFCA5
:1015300032230122A11D9E48FFF72CFC0122082125
:101540003846FFF77BF80120A870002028701BB0F8
:10155000BDE8F08FBDF910109148C91B00EE101ABC
:10156000B8EEC00A20EE201A80ED021ABDF90C1068
:10157000491B00EE101AB8EEC00A20EE200A80EDDA
:10158000030ABDF90810B6EE002A091B01EE901AF5
:10159000F8EEE11A61EEA00ADFED861AC0ED040A4A
:1015A000D0ED082AB4EEE21AF1EE10FA06DCF1EE04
:1015B000622AB4EEE21AF1EE10FA0DD2D0ED0E2A44
:1015C00071EE222A22EEA13AD0ED0B2A43EE022A36
:1015D000C0ED0B2A80ED0E1A90ED091AB4EEC10A87
:1015E000F1EE10FA06DCB1EE411AB4EEC10AF1EEEA
:1015F00010FA0DD290ED0F1A30EE011A61EE212A89
:1016000090ED0C1A02EE821A80ED0C1A80ED0F0A92
:1016100090ED0A0AF4EEC00AF1EE10FA06DCB1EE23
:10162000400AF4EEC00AF1EE10FA0DD290ED100A65
:1016300030EE800A20EE211A90ED0D0A01EE020A2A
:1016400080ED0D0AC0ED100AA3E0BDF81000216D79
:101650002CF81100BDF80C00216D25F81100BDF823
:101660000800216D27F81100206D401C2065206DB9
:10167000404503D3002020650120607089E00021EF
:101680000DF14809E646AB46BA460DAC3BF911C030
:1016900034F910503EF91180761B39F91050464448
:1016A0005D1B05EB0C0308AD35F91070D21B3AF940
:1016B000117024F8108029F810C025F810700A2441
:1016C0003A4496FBF4F793FBF4F592FBF4F4401CD8
:1016D0000A2800D30020491CB1F5FA6FD5D3DFF8F2
:1016E000C09000234846C9F81470C0E90654D9E9EF
:1016F0001212D9F8440000BF3EF913C0ACEB070644
:10170000864201DD304605E0C0F10008464501DAB9
:10171000A7EB0C003BF913C0ACEB05068E4201DDD4
:10172000314605E0C1F10008464501DAA5EB0C01A0
:101730003AF913C0ACEB0406964201DD324605E0EF
:10174000C2F10008464501DAA4EB0C025B1CB3F5BC
:10175000FA6FD1D300EE100A09F14404B8EEC00AC2
:1017600084E8070020EE200A022089ED080A00EE36
:10177000101AB8EEC00A20EE200A89ED090A00EE20
:10178000102AB8EEC00A20EE200A89ED0A0A89F86C
:10179000010003480021817001210170D7E600009B
:1017A00000000020295C8F3D6C00002000100240EA
:1017B0004C2F0020A69B443B2DE9F04186B014211C
:1017C0006846FEF7D0FD23480024016841F010016F
:1017D0000160016801F010010591016841F080018C
:1017E0000160016801F080010591016841F001018B
:1017F0000160016801F001010591016841F00801F3
:1018000001600068144F00F00800059001220821D3
:101810003846FEF713FFDFF844804FF4704600228D
:1018200031464046FEF70AFF082000900125CDE929
:101830000154694638460394FEF710FE0096CDE940
:101840000154694640460394FEF708FE06B0BDE821
:10185000F08100003038024000100240000C0240CD
:10186000104810B50E4901604FF4827141600021AB
:101870008160C1604FF400720161C0E90512182255
:10188000C0E90721416281620A21C162FFF7F0F9D4
:10189000002803D0BDE81040FEF7CBBD10BD00000E
:1018A000003001404C2F0020FEE7FEE77047F8B5FE
:1018B000044640684FF48273984221D1A0684FF4E7
:1018C0008065B0F5004F01D0A8420AD120680668B3
:1018D00026F0400606606068984211D1A068A842D0
:1018E0000ED000920B4600228021204600F03AF8EC
:1018F000002804D0606D40F0200060650320F8BD32
:1019000000920B4600220121EFE7000038B50446A3
:101910001248134B0068B0FBF3F04FF47A7358434E
:1019200000906068B0F5827F0DD10B4600920022D6
:101930008021204600F016F870B1606D40F0200064
:101940006065032038BD009830B1401E00902068CB
:101950008068C0430006F6D5002038BD680000202E
:1019600000366E012DE9F8431E469146884604462E
:10197000089DFEF769FE401B351AFEF765FE074617
:1019800025480068C0F3CB30684338E0701C37D07E
:10199000FEF75AFEC01BA84203D215B1009860B3EF
:1019A0002CE02068416821F0E00141606068B0F5FA
:1019B000827F0BD1A068B0F5004F02D0B0F5806FE8
:1019C00004D12068016821F040010160A06AB0F5EF
:1019D000005F09D12068016821F40051016020688E
:1019E000016841F400510160012084F85100002099
:1019F00084F850000320BDE8F8830025401E0090C5
:101A00002068816838EA010004D000214945BDD131
:101A10000020F0E70121F9E7680000207047FEF799
:101A200019BE000030B593B030216846FEF79BFC2C
:101A300014210CA8FEF797FC1C480024016841F013
:101A400080510160006800F08050119018480168D2
:101A500041F4404101600068022500F440401190CB
:101A60000120039010200490009506950820CDE9F0
:101A700007406420CDE9090504200B906846FEF775
:101A800041FF08B172B6FEE70F20CDE90C054FF417
:101A90008050CDE90E4003210CA81094FEF766FE9D
:101AA000002801D072B6FEE713B030BD40380240C6
:101AB000007000400248016841F470010160704705
:101AC00088ED00E0FEE70907090E002804DB00F1BD
:101AD000E02080F80014704700F00F0000F1E020D3
:101AE00080F8141D7047FEF7BDFDFFF79BFFFFF761
:101AF00063FEFFF7B5FEFFF7B3FBFFF745FC0120E0
:101B0000FEF79AFCF9E74FF04070E1EE100A7047DB
:101B1000000000000000000001020304060708099D
:101B2000401B0008000000206C000000D4010008E9
:101B3000AC1B00086C0000209C350000F001000880
:101B40000100000000000000000000000000000094
:101B50000000000000000000000000000000000085
:101B60000000000000000000000000000000000075
:101B70000000000000000000000000000000000065
:101B80000000000000000000000000000000000055
:101B90000000000000000000000000000100000044
:0C1BA00010000000000000000024F40011
:040000050800019955
:00000001FF
